{"_format":"hh-sol-artifact-1","contractName":"NFT","sourceName":"contracts/NFT.sol","abi":[{"inputs":[],"stateMutability":"nonpayable","type":"constructor"},{"anonymous":false,"inputs":[{"indexed":true,"internalType":"address","name":"owner","type":"address"},{"indexed":true,"internalType":"address","name":"approved","type":"address"},{"indexed":true,"internalType":"uint256","name":"tokenId","type":"uint256"}],"name":"Approval","type":"event"},{"anonymous":false,"inputs":[{"indexed":true,"internalType":"address","name":"owner","type":"address"},{"indexed":true,"internalType":"address","name":"operator","type":"address"},{"indexed":false,"internalType":"bool","name":"approved","type":"bool"}],"name":"ApprovalForAll","type":"event"},{"anonymous":false,"inputs":[{"indexed":true,"internalType":"address","name":"previousOwner","type":"address"},{"indexed":true,"internalType":"address","name":"newOwner","type":"address"}],"name":"OwnershipTransferred","type":"event"},{"anonymous":false,"inputs":[{"indexed":false,"internalType":"address","name":"account","type":"address"}],"name":"Paused","type":"event"},{"anonymous":false,"inputs":[{"indexed":true,"internalType":"address","name":"from","type":"address"},{"indexed":true,"internalType":"address","name":"to","type":"address"},{"indexed":true,"internalType":"uint256","name":"tokenId","type":"uint256"}],"name":"Transfer","type":"event"},{"anonymous":false,"inputs":[{"indexed":false,"internalType":"address","name":"account","type":"address"}],"name":"Unpaused","type":"event"},{"inputs":[{"internalType":"address","name":"to","type":"address"},{"internalType":"uint256","name":"tokenId","type":"uint256"}],"name":"approve","outputs":[],"stateMutability":"nonpayable","type":"function"},{"inputs":[{"internalType":"address","name":"owner","type":"address"}],"name":"balanceOf","outputs":[{"internalType":"uint256","name":"","type":"uint256"}],"stateMutability":"view","type":"function"},{"inputs":[{"internalType":"uint256","name":"tokenId","type":"uint256"}],"name":"getApproved","outputs":[{"internalType":"address","name":"","type":"address"}],"stateMutability":"view","type":"function"},{"inputs":[{"internalType":"address","name":"owner","type":"address"},{"internalType":"address","name":"operator","type":"address"}],"name":"isApprovedForAll","outputs":[{"internalType":"bool","name":"","type":"bool"}],"stateMutability":"view","type":"function"},{"inputs":[],"name":"name","outputs":[{"internalType":"string","name":"","type":"string"}],"stateMutability":"view","type":"function"},{"inputs":[],"name":"owner","outputs":[{"internalType":"address","name":"","type":"address"}],"stateMutability":"view","type":"function"},{"inputs":[{"internalType":"uint256","name":"tokenId","type":"uint256"}],"name":"ownerOf","outputs":[{"internalType":"address","name":"","type":"address"}],"stateMutability":"view","type":"function"},{"inputs":[],"name":"pause","outputs":[],"stateMutability":"nonpayable","type":"function"},{"inputs":[],"name":"paused","outputs":[{"internalType":"bool","name":"","type":"bool"}],"stateMutability":"view","type":"function"},{"inputs":[],"name":"renounceOwnership","outputs":[],"stateMutability":"nonpayable","type":"function"},{"inputs":[{"internalType":"address","name":"to","type":"address"},{"internalType":"string","name":"uri","type":"string"}],"name":"safeMint","outputs":[],"stateMutability":"payable","type":"function"},{"inputs":[{"internalType":"address","name":"from","type":"address"},{"internalType":"address","name":"to","type":"address"},{"internalType":"uint256","name":"tokenId","type":"uint256"}],"name":"safeTransferFrom","outputs":[],"stateMutability":"nonpayable","type":"function"},{"inputs":[{"internalType":"address","name":"from","type":"address"},{"internalType":"address","name":"to","type":"address"},{"internalType":"uint256","name":"tokenId","type":"uint256"},{"internalType":"bytes","name":"data","type":"bytes"}],"name":"safeTransferFrom","outputs":[],"stateMutability":"nonpayable","type":"function"},{"inputs":[{"internalType":"address","name":"operator","type":"address"},{"internalType":"bool","name":"approved","type":"bool"}],"name":"setApprovalForAll","outputs":[],"stateMutability":"nonpayable","type":"function"},{"inputs":[{"internalType":"bytes4","name":"interfaceId","type":"bytes4"}],"name":"supportsInterface","outputs":[{"internalType":"bool","name":"","type":"bool"}],"stateMutability":"view","type":"function"},{"inputs":[],"name":"symbol","outputs":[{"internalType":"string","name":"","type":"string"}],"stateMutability":"view","type":"function"},{"inputs":[{"internalType":"uint256","name":"tokenId","type":"uint256"}],"name":"tokenURI","outputs":[{"internalType":"string","name":"","type":"string"}],"stateMutability":"view","type":"function"},{"inputs":[{"internalType":"address","name":"from","type":"address"},{"internalType":"address","name":"to","type":"address"},{"internalType":"uint256","name":"tokenId","type":"uint256"}],"name":"transferFrom","outputs":[],"stateMutability":"nonpayable","type":"function"},{"inputs":[{"internalType":"address","name":"newOwner","type":"address"}],"name":"transferOwnership","outputs":[],"stateMutability":"nonpayable","type":"function"},{"inputs":[],"name":"unpause","outputs":[],"stateMutability":"nonpayable","type":"function"}],"bytecode":"0x60806040523480156200001157600080fd5b506040518060400160405280600381526020017f4e465400000000000000000000000000000000000000000000000000000000008152506040518060400160405280600381526020017f4d4b50000000000000000000000000000000000000000000000000000000000081525081600090816200008f91906200042d565b508060019081620000a191906200042d565b5050506000600760006101000a81548160ff021916908315150217905550620000df620000d3620000e560201b60201c565b620000ed60201b60201c565b62000514565b600033905090565b6000600760019054906101000a900473ffffffffffffffffffffffffffffffffffffffff16905081600760016101000a81548173ffffffffffffffffffffffffffffffffffffffff021916908373ffffffffffffffffffffffffffffffffffffffff1602179055508173ffffffffffffffffffffffffffffffffffffffff168173ffffffffffffffffffffffffffffffffffffffff167f8be0079c531659141344cd1fd0a4f28419497f9722a3daafe3b4186f6b6457e060405160405180910390a35050565b600081519050919050565b7f4e487b7100000000000000000000000000000000000000000000000000000000600052604160045260246000fd5b7f4e487b7100000000000000000000000000000000000000000000000000000000600052602260045260246000fd5b600060028204905060018216806200023557607f821691505b6020821081036200024b576200024a620001ed565b5b50919050565b60008190508160005260206000209050919050565b60006020601f8301049050919050565b600082821b905092915050565b600060088302620002b57fffffffffffffffffffffffffffffffffffffffffffffffffffffffffffffffff8262000276565b620002c1868362000276565b95508019841693508086168417925050509392505050565b6000819050919050565b6000819050919050565b60006200030e620003086200030284620002d9565b620002e3565b620002d9565b9050919050565b6000819050919050565b6200032a83620002ed565b62000342620003398262000315565b84845462000283565b825550505050565b600090565b620003596200034a565b620003668184846200031f565b505050565b5b818110156200038e57620003826000826200034f565b6001810190506200036c565b5050565b601f821115620003dd57620003a78162000251565b620003b28462000266565b81016020851015620003c2578190505b620003da620003d18562000266565b8301826200036b565b50505b505050565b600082821c905092915050565b60006200040260001984600802620003e2565b1980831691505092915050565b60006200041d8383620003ef565b9150826002028217905092915050565b6200043882620001b3565b67ffffffffffffffff811115620004545762000453620001be565b5b6200046082546200021c565b6200046d82828562000392565b600060209050601f831160018114620004a5576000841562000490578287015190505b6200049c85826200040f565b8655506200050c565b601f198416620004b58662000251565b60005b82811015620004df57848901518255600182019150602085019450602081019050620004b8565b86831015620004ff5784890151620004fb601f891682620003ef565b8355505b6001600288020188555050505b505050505050565b61339a80620005246000396000f3fe60806040526004361061011f5760003560e01c8063715018a6116100a0578063b88d4fde11610064578063b88d4fde146103ad578063c87b56dd146103d6578063d204c45e14610413578063e985e9c51461042f578063f2fde38b1461046c5761011f565b8063715018a6146103005780638456cb59146103175780638da5cb5b1461032e57806395d89b4114610359578063a22cb465146103845761011f565b80633f4ba83a116100e75780633f4ba83a1461021b57806342842e0e146102325780635c975abb1461025b5780636352211e1461028657806370a08231146102c35761011f565b806301ffc9a71461012457806306fdde0314610161578063081812fc1461018c578063095ea7b3146101c957806323b872dd146101f2575b600080fd5b34801561013057600080fd5b5061014b6004803603810190610146919061201c565b610495565b6040516101589190612064565b60405180910390f35b34801561016d57600080fd5b50610176610577565b604051610183919061210f565b60405180910390f35b34801561019857600080fd5b506101b360048036038101906101ae9190612167565b610609565b6040516101c091906121d5565b60405180910390f35b3480156101d557600080fd5b506101f060048036038101906101eb919061221c565b61064f565b005b3480156101fe57600080fd5b506102196004803603810190610214919061225c565b610766565b005b34801561022757600080fd5b506102306107c6565b005b34801561023e57600080fd5b506102596004803603810190610254919061225c565b6107d8565b005b34801561026757600080fd5b506102706107f8565b60405161027d9190612064565b60405180910390f35b34801561029257600080fd5b506102ad60048036038101906102a89190612167565b61080f565b6040516102ba91906121d5565b60405180910390f35b3480156102cf57600080fd5b506102ea60048036038101906102e591906122af565b610895565b6040516102f791906122eb565b60405180910390f35b34801561030c57600080fd5b5061031561094c565b005b34801561032357600080fd5b5061032c610960565b005b34801561033a57600080fd5b50610343610972565b60405161035091906121d5565b60405180910390f35b34801561036557600080fd5b5061036e61099c565b60405161037b919061210f565b60405180910390f35b34801561039057600080fd5b506103ab60048036038101906103a69190612332565b610a2e565b005b3480156103b957600080fd5b506103d460048036038101906103cf91906124a7565b610a44565b005b3480156103e257600080fd5b506103fd60048036038101906103f89190612167565b610aa6565b60405161040a919061210f565b60405180910390f35b61042d600480360381019061042891906125cb565b610ab8565b005b34801561043b57600080fd5b5061045660048036038101906104519190612627565b610ae9565b6040516104639190612064565b60405180910390f35b34801561047857600080fd5b50610493600480360381019061048e91906122af565b610b7d565b005b60007f80ac58cd000000000000000000000000000000000000000000000000000000007bffffffffffffffffffffffffffffffffffffffffffffffffffffffff1916827bffffffffffffffffffffffffffffffffffffffffffffffffffffffff1916148061056057507f5b5e139f000000000000000000000000000000000000000000000000000000007bffffffffffffffffffffffffffffffffffffffffffffffffffffffff1916827bffffffffffffffffffffffffffffffffffffffffffffffffffffffff1916145b80610570575061056f82610c00565b5b9050919050565b60606000805461058690612696565b80601f01602080910402602001604051908101604052809291908181526020018280546105b290612696565b80156105ff5780601f106105d4576101008083540402835291602001916105ff565b820191906000526020600020905b8154815290600101906020018083116105e257829003601f168201915b5050505050905090565b600061061482610c6a565b6004600083815260200190815260200160002060009054906101000a900473ffffffffffffffffffffffffffffffffffffffff169050919050565b600061065a8261080f565b90508073ffffffffffffffffffffffffffffffffffffffff168373ffffffffffffffffffffffffffffffffffffffff16036106ca576040517f08c379a00000000000000000000000000000000000000000000000000000000081526004016106c190612739565b60405180910390fd5b8073ffffffffffffffffffffffffffffffffffffffff166106e9610cb5565b73ffffffffffffffffffffffffffffffffffffffff161480610718575061071781610712610cb5565b610ae9565b5b610757576040517f08c379a000000000000000000000000000000000000000000000000000000000815260040161074e906127cb565b60405180910390fd5b6107618383610cbd565b505050565b610777610771610cb5565b82610d76565b6107b6576040517f08c379a00000000000000000000000000000000000000000000000000000000081526004016107ad9061285d565b60405180910390fd5b6107c1838383610e0b565b505050565b6107ce611104565b6107d6611182565b565b6107f383838360405180602001604052806000815250610a44565b505050565b6000600760009054906101000a900460ff16905090565b60008061081b836111e5565b9050600073ffffffffffffffffffffffffffffffffffffffff168173ffffffffffffffffffffffffffffffffffffffff160361088c576040517f08c379a0000000000000000000000000000000000000000000000000000000008152600401610883906128c9565b60405180910390fd5b80915050919050565b60008073ffffffffffffffffffffffffffffffffffffffff168273ffffffffffffffffffffffffffffffffffffffff1603610905576040517f08c379a00000000000000000000000000000000000000000000000000000000081526004016108fc9061295b565b60405180910390fd5b600360008373ffffffffffffffffffffffffffffffffffffffff1673ffffffffffffffffffffffffffffffffffffffff168152602001908152602001600020549050919050565b610954611104565b61095e6000611222565b565b610968611104565b6109706112e8565b565b6000600760019054906101000a900473ffffffffffffffffffffffffffffffffffffffff16905090565b6060600180546109ab90612696565b80601f01602080910402602001604051908101604052809291908181526020018280546109d790612696565b8015610a245780601f106109f957610100808354040283529160200191610a24565b820191906000526020600020905b815481529060010190602001808311610a0757829003601f168201915b5050505050905090565b610a40610a39610cb5565b838361134b565b5050565b610a55610a4f610cb5565b83610d76565b610a94576040517f08c379a0000000000000000000000000000000000000000000000000000000008152600401610a8b9061285d565b60405180910390fd5b610aa0848484846114b7565b50505050565b6060610ab182611513565b9050919050565b6000610ac46008611625565b9050610ad06008611633565b610ada8382611649565b610ae48183611667565b505050565b6000600560008473ffffffffffffffffffffffffffffffffffffffff1673ffffffffffffffffffffffffffffffffffffffff16815260200190815260200160002060008373ffffffffffffffffffffffffffffffffffffffff1673ffffffffffffffffffffffffffffffffffffffff16815260200190815260200160002060009054906101000a900460ff16905092915050565b610b85611104565b600073ffffffffffffffffffffffffffffffffffffffff168173ffffffffffffffffffffffffffffffffffffffff1603610bf4576040517f08c379a0000000000000000000000000000000000000000000000000000000008152600401610beb906129ed565b60405180910390fd5b610bfd81611222565b50565b60007f01ffc9a7000000000000000000000000000000000000000000000000000000007bffffffffffffffffffffffffffffffffffffffffffffffffffffffff1916827bffffffffffffffffffffffffffffffffffffffffffffffffffffffff1916149050919050565b610c73816116d4565b610cb2576040517f08c379a0000000000000000000000000000000000000000000000000000000008152600401610ca9906128c9565b60405180910390fd5b50565b600033905090565b816004600083815260200190815260200160002060006101000a81548173ffffffffffffffffffffffffffffffffffffffff021916908373ffffffffffffffffffffffffffffffffffffffff160217905550808273ffffffffffffffffffffffffffffffffffffffff16610d308361080f565b73ffffffffffffffffffffffffffffffffffffffff167f8c5be1e5ebec7d5bd14f71427d1e84f3dd0314c0f7b2291e5b200ac8c7c3b92560405160405180910390a45050565b600080610d828361080f565b90508073ffffffffffffffffffffffffffffffffffffffff168473ffffffffffffffffffffffffffffffffffffffff161480610dc45750610dc38185610ae9565b5b80610e0257508373ffffffffffffffffffffffffffffffffffffffff16610dea84610609565b73ffffffffffffffffffffffffffffffffffffffff16145b91505092915050565b8273ffffffffffffffffffffffffffffffffffffffff16610e2b8261080f565b73ffffffffffffffffffffffffffffffffffffffff1614610e81576040517f08c379a0000000000000000000000000000000000000000000000000000000008152600401610e7890612a7f565b60405180910390fd5b600073ffffffffffffffffffffffffffffffffffffffff168273ffffffffffffffffffffffffffffffffffffffff1603610ef0576040517f08c379a0000000000000000000000000000000000000000000000000000000008152600401610ee790612b11565b60405180910390fd5b610efd8383836001611715565b8273ffffffffffffffffffffffffffffffffffffffff16610f1d8261080f565b73ffffffffffffffffffffffffffffffffffffffff1614610f73576040517f08c379a0000000000000000000000000000000000000000000000000000000008152600401610f6a90612a7f565b60405180910390fd5b6004600082815260200190815260200160002060006101000a81549073ffffffffffffffffffffffffffffffffffffffff02191690556001600360008573ffffffffffffffffffffffffffffffffffffffff1673ffffffffffffffffffffffffffffffffffffffff168152602001908152602001600020600082825403925050819055506001600360008473ffffffffffffffffffffffffffffffffffffffff1673ffffffffffffffffffffffffffffffffffffffff16815260200190815260200160002060008282540192505081905550816002600083815260200190815260200160002060006101000a81548173ffffffffffffffffffffffffffffffffffffffff021916908373ffffffffffffffffffffffffffffffffffffffff160217905550808273ffffffffffffffffffffffffffffffffffffffff168473ffffffffffffffffffffffffffffffffffffffff167fddf252ad1be2c89b69c2b068fc378daa952ba7f163c4a11628f55a4df523b3ef60405160405180910390a46110ff838383600161172f565b505050565b61110c610cb5565b73ffffffffffffffffffffffffffffffffffffffff1661112a610972565b73ffffffffffffffffffffffffffffffffffffffff1614611180576040517f08c379a000000000000000000000000000000000000000000000000000000000815260040161117790612b7d565b60405180910390fd5b565b61118a611735565b6000600760006101000a81548160ff0219169083151502179055507f5db9ee0a495bf2e6ff9c91a7834c1ba4fdd244a5e8aa4e537bd38aeae4b073aa6111ce610cb5565b6040516111db91906121d5565b60405180910390a1565b60006002600083815260200190815260200160002060009054906101000a900473ffffffffffffffffffffffffffffffffffffffff169050919050565b6000600760019054906101000a900473ffffffffffffffffffffffffffffffffffffffff16905081600760016101000a81548173ffffffffffffffffffffffffffffffffffffffff021916908373ffffffffffffffffffffffffffffffffffffffff1602179055508173ffffffffffffffffffffffffffffffffffffffff168173ffffffffffffffffffffffffffffffffffffffff167f8be0079c531659141344cd1fd0a4f28419497f9722a3daafe3b4186f6b6457e060405160405180910390a35050565b6112f061177e565b6001600760006101000a81548160ff0219169083151502179055507f62e78cea01bee320cd4e420270b5ea74000d11b0c9f74754ebdbfc544b05a258611334610cb5565b60405161134191906121d5565b60405180910390a1565b8173ffffffffffffffffffffffffffffffffffffffff168373ffffffffffffffffffffffffffffffffffffffff16036113b9576040517f08c379a00000000000000000000000000000000000000000000000000000000081526004016113b090612be9565b60405180910390fd5b80600560008573ffffffffffffffffffffffffffffffffffffffff1673ffffffffffffffffffffffffffffffffffffffff16815260200190815260200160002060008473ffffffffffffffffffffffffffffffffffffffff1673ffffffffffffffffffffffffffffffffffffffff16815260200190815260200160002060006101000a81548160ff0219169083151502179055508173ffffffffffffffffffffffffffffffffffffffff168373ffffffffffffffffffffffffffffffffffffffff167f17307eab39ab6107e8899845ad3d59bd9653f200f220920489ca2b5937696c31836040516114aa9190612064565b60405180910390a3505050565b6114c2848484610e0b565b6114ce848484846117c8565b61150d576040517f08c379a000000000000000000000000000000000000000000000000000000000815260040161150490612c7b565b60405180910390fd5b50505050565b606061151e82610c6a565b600060066000848152602001908152602001600020805461153e90612696565b80601f016020809104026020016040519081016040528092919081815260200182805461156a90612696565b80156115b75780601f1061158c576101008083540402835291602001916115b7565b820191906000526020600020905b81548152906001019060200180831161159a57829003601f168201915b5050505050905060006115c861194f565b905060008151036115dd578192505050611620565b6000825111156116125780826040516020016115fa929190612cd7565b60405160208183030381529060405292505050611620565b61161b84611966565b925050505b919050565b600081600001549050919050565b6001816000016000828254019250508190555050565b6116638282604051806020016040528060008152506119ce565b5050565b611670826116d4565b6116af576040517f08c379a00000000000000000000000000000000000000000000000000000000081526004016116a690612d6d565b60405180910390fd5b806006600084815260200190815260200160002090816116cf9190612f39565b505050565b60008073ffffffffffffffffffffffffffffffffffffffff166116f6836111e5565b73ffffffffffffffffffffffffffffffffffffffff1614159050919050565b61171d61177e565b61172984848484611a29565b50505050565b50505050565b61173d6107f8565b61177c576040517f08c379a000000000000000000000000000000000000000000000000000000000815260040161177390613057565b60405180910390fd5b565b6117866107f8565b156117c6576040517f08c379a00000000000000000000000000000000000000000000000000000000081526004016117bd906130c3565b60405180910390fd5b565b60006117e98473ffffffffffffffffffffffffffffffffffffffff16611b4f565b15611942578373ffffffffffffffffffffffffffffffffffffffff1663150b7a02611812610cb5565b8786866040518563ffffffff1660e01b81526004016118349493929190613138565b6020604051808303816000875af192505050801561187057506040513d601f19601f8201168201806040525081019061186d9190613199565b60015b6118f2573d80600081146118a0576040519150601f19603f3d011682016040523d82523d6000602084013e6118a5565b606091505b5060008151036118ea576040517f08c379a00000000000000000000000000000000000000000000000000000000081526004016118e190612c7b565b60405180910390fd5b805181602001fd5b63150b7a0260e01b7bffffffffffffffffffffffffffffffffffffffffffffffffffffffff1916817bffffffffffffffffffffffffffffffffffffffffffffffffffffffff191614915050611947565b600190505b949350505050565b606060405180602001604052806000815250905090565b606061197182610c6a565b600061197b61194f565b9050600081511161199b57604051806020016040528060008152506119c6565b806119a584611b72565b6040516020016119b6929190612cd7565b6040516020818303038152906040525b915050919050565b6119d88383611c40565b6119e560008484846117c8565b611a24576040517f08c379a0000000000000000000000000000000000000000000000000000000008152600401611a1b90612c7b565b60405180910390fd5b505050565b6001811115611b4957600073ffffffffffffffffffffffffffffffffffffffff168473ffffffffffffffffffffffffffffffffffffffff1614611abd5780600360008673ffffffffffffffffffffffffffffffffffffffff1673ffffffffffffffffffffffffffffffffffffffff1681526020019081526020016000206000828254611ab591906131f5565b925050819055505b600073ffffffffffffffffffffffffffffffffffffffff168373ffffffffffffffffffffffffffffffffffffffff1614611b485780600360008573ffffffffffffffffffffffffffffffffffffffff1673ffffffffffffffffffffffffffffffffffffffff1681526020019081526020016000206000828254611b409190613229565b925050819055505b5b50505050565b6000808273ffffffffffffffffffffffffffffffffffffffff163b119050919050565b606060006001611b8184611e5d565b01905060008167ffffffffffffffff811115611ba057611b9f61237c565b5b6040519080825280601f01601f191660200182016040528015611bd25781602001600182028036833780820191505090505b509050600082602001820190505b600115611c35578080600190039150507f3031323334353637383961626364656600000000000000000000000000000000600a86061a8153600a8581611c2957611c2861325d565b5b04945060008503611be0575b819350505050919050565b600073ffffffffffffffffffffffffffffffffffffffff168273ffffffffffffffffffffffffffffffffffffffff1603611caf576040517f08c379a0000000000000000000000000000000000000000000000000000000008152600401611ca6906132d8565b60405180910390fd5b611cb8816116d4565b15611cf8576040517f08c379a0000000000000000000000000000000000000000000000000000000008152600401611cef90613344565b60405180910390fd5b611d06600083836001611715565b611d0f816116d4565b15611d4f576040517f08c379a0000000000000000000000000000000000000000000000000000000008152600401611d4690613344565b60405180910390fd5b6001600360008473ffffffffffffffffffffffffffffffffffffffff1673ffffffffffffffffffffffffffffffffffffffff16815260200190815260200160002060008282540192505081905550816002600083815260200190815260200160002060006101000a81548173ffffffffffffffffffffffffffffffffffffffff021916908373ffffffffffffffffffffffffffffffffffffffff160217905550808273ffffffffffffffffffffffffffffffffffffffff16600073ffffffffffffffffffffffffffffffffffffffff167fddf252ad1be2c89b69c2b068fc378daa952ba7f163c4a11628f55a4df523b3ef60405160405180910390a4611e5960008383600161172f565b5050565b600080600090507a184f03e93ff9f4daa797ed6e38ed64bf6a1f0100000000000000008310611ebb577a184f03e93ff9f4daa797ed6e38ed64bf6a1f0100000000000000008381611eb157611eb061325d565b5b0492506040810190505b6d04ee2d6d415b85acef81000000008310611ef8576d04ee2d6d415b85acef81000000008381611eee57611eed61325d565b5b0492506020810190505b662386f26fc100008310611f2757662386f26fc100008381611f1d57611f1c61325d565b5b0492506010810190505b6305f5e1008310611f50576305f5e1008381611f4657611f4561325d565b5b0492506008810190505b6127108310611f75576127108381611f6b57611f6a61325d565b5b0492506004810190505b60648310611f985760648381611f8e57611f8d61325d565b5b0492506002810190505b600a8310611fa7576001810190505b80915050919050565b6000604051905090565b600080fd5b600080fd5b60007fffffffff0000000000000000000000000000000000000000000000000000000082169050919050565b611ff981611fc4565b811461200457600080fd5b50565b60008135905061201681611ff0565b92915050565b60006020828403121561203257612031611fba565b5b600061204084828501612007565b91505092915050565b60008115159050919050565b61205e81612049565b82525050565b60006020820190506120796000830184612055565b92915050565b600081519050919050565b600082825260208201905092915050565b60005b838110156120b957808201518184015260208101905061209e565b60008484015250505050565b6000601f19601f8301169050919050565b60006120e18261207f565b6120eb818561208a565b93506120fb81856020860161209b565b612104816120c5565b840191505092915050565b6000602082019050818103600083015261212981846120d6565b905092915050565b6000819050919050565b61214481612131565b811461214f57600080fd5b50565b6000813590506121618161213b565b92915050565b60006020828403121561217d5761217c611fba565b5b600061218b84828501612152565b91505092915050565b600073ffffffffffffffffffffffffffffffffffffffff82169050919050565b60006121bf82612194565b9050919050565b6121cf816121b4565b82525050565b60006020820190506121ea60008301846121c6565b92915050565b6121f9816121b4565b811461220457600080fd5b50565b600081359050612216816121f0565b92915050565b6000806040838503121561223357612232611fba565b5b600061224185828601612207565b925050602061225285828601612152565b9150509250929050565b60008060006060848603121561227557612274611fba565b5b600061228386828701612207565b935050602061229486828701612207565b92505060406122a586828701612152565b9150509250925092565b6000602082840312156122c5576122c4611fba565b5b60006122d384828501612207565b91505092915050565b6122e581612131565b82525050565b600060208201905061230060008301846122dc565b92915050565b61230f81612049565b811461231a57600080fd5b50565b60008135905061232c81612306565b92915050565b6000806040838503121561234957612348611fba565b5b600061235785828601612207565b92505060206123688582860161231d565b9150509250929050565b600080fd5b600080fd5b7f4e487b7100000000000000000000000000000000000000000000000000000000600052604160045260246000fd5b6123b4826120c5565b810181811067ffffffffffffffff821117156123d3576123d261237c565b5b80604052505050565b60006123e6611fb0565b90506123f282826123ab565b919050565b600067ffffffffffffffff8211156124125761241161237c565b5b61241b826120c5565b9050602081019050919050565b82818337600083830152505050565b600061244a612445846123f7565b6123dc565b90508281526020810184848401111561246657612465612377565b5b612471848285612428565b509392505050565b600082601f83011261248e5761248d612372565b5b813561249e848260208601612437565b91505092915050565b600080600080608085870312156124c1576124c0611fba565b5b60006124cf87828801612207565b94505060206124e087828801612207565b93505060406124f187828801612152565b925050606085013567ffffffffffffffff81111561251257612511611fbf565b5b61251e87828801612479565b91505092959194509250565b600067ffffffffffffffff8211156125455761254461237c565b5b61254e826120c5565b9050602081019050919050565b600061256e6125698461252a565b6123dc565b90508281526020810184848401111561258a57612589612377565b5b612595848285612428565b509392505050565b600082601f8301126125b2576125b1612372565b5b81356125c284826020860161255b565b91505092915050565b600080604083850312156125e2576125e1611fba565b5b60006125f085828601612207565b925050602083013567ffffffffffffffff81111561261157612610611fbf565b5b61261d8582860161259d565b9150509250929050565b6000806040838503121561263e5761263d611fba565b5b600061264c85828601612207565b925050602061265d85828601612207565b9150509250929050565b7f4e487b7100000000000000000000000000000000000000000000000000000000600052602260045260246000fd5b600060028204905060018216806126ae57607f821691505b6020821081036126c1576126c0612667565b5b50919050565b7f4552433732313a20617070726f76616c20746f2063757272656e74206f776e6560008201527f7200000000000000000000000000000000000000000000000000000000000000602082015250565b600061272360218361208a565b915061272e826126c7565b604082019050919050565b6000602082019050818103600083015261275281612716565b9050919050565b7f4552433732313a20617070726f76652063616c6c6572206973206e6f7420746f60008201527f6b656e206f776e6572206f7220617070726f76656420666f7220616c6c000000602082015250565b60006127b5603d8361208a565b91506127c082612759565b604082019050919050565b600060208201905081810360008301526127e4816127a8565b9050919050565b7f4552433732313a2063616c6c6572206973206e6f7420746f6b656e206f776e6560008201527f72206f7220617070726f76656400000000000000000000000000000000000000602082015250565b6000612847602d8361208a565b9150612852826127eb565b604082019050919050565b600060208201905081810360008301526128768161283a565b9050919050565b7f4552433732313a20696e76616c696420746f6b656e2049440000000000000000600082015250565b60006128b360188361208a565b91506128be8261287d565b602082019050919050565b600060208201905081810360008301526128e2816128a6565b9050919050565b7f4552433732313a2061646472657373207a65726f206973206e6f74206120766160008201527f6c6964206f776e65720000000000000000000000000000000000000000000000602082015250565b600061294560298361208a565b9150612950826128e9565b604082019050919050565b6000602082019050818103600083015261297481612938565b9050919050565b7f4f776e61626c653a206e6577206f776e657220697320746865207a65726f206160008201527f6464726573730000000000000000000000000000000000000000000000000000602082015250565b60006129d760268361208a565b91506129e28261297b565b604082019050919050565b60006020820190508181036000830152612a06816129ca565b9050919050565b7f4552433732313a207472616e736665722066726f6d20696e636f72726563742060008201527f6f776e6572000000000000000000000000000000000000000000000000000000602082015250565b6000612a6960258361208a565b9150612a7482612a0d565b604082019050919050565b60006020820190508181036000830152612a9881612a5c565b9050919050565b7f4552433732313a207472616e7366657220746f20746865207a65726f2061646460008201527f7265737300000000000000000000000000000000000000000000000000000000602082015250565b6000612afb60248361208a565b9150612b0682612a9f565b604082019050919050565b60006020820190508181036000830152612b2a81612aee565b9050919050565b7f4f776e61626c653a2063616c6c6572206973206e6f7420746865206f776e6572600082015250565b6000612b6760208361208a565b9150612b7282612b31565b602082019050919050565b60006020820190508181036000830152612b9681612b5a565b9050919050565b7f4552433732313a20617070726f766520746f2063616c6c657200000000000000600082015250565b6000612bd360198361208a565b9150612bde82612b9d565b602082019050919050565b60006020820190508181036000830152612c0281612bc6565b9050919050565b7f4552433732313a207472616e7366657220746f206e6f6e20455243373231526560008201527f63656976657220696d706c656d656e7465720000000000000000000000000000602082015250565b6000612c6560328361208a565b9150612c7082612c09565b604082019050919050565b60006020820190508181036000830152612c9481612c58565b9050919050565b600081905092915050565b6000612cb18261207f565b612cbb8185612c9b565b9350612ccb81856020860161209b565b80840191505092915050565b6000612ce38285612ca6565b9150612cef8284612ca6565b91508190509392505050565b7f45524337323155524953746f726167653a2055524920736574206f66206e6f6e60008201527f6578697374656e7420746f6b656e000000000000000000000000000000000000602082015250565b6000612d57602e8361208a565b9150612d6282612cfb565b604082019050919050565b60006020820190508181036000830152612d8681612d4a565b9050919050565b60008190508160005260206000209050919050565b60006020601f8301049050919050565b600082821b905092915050565b600060088302612def7fffffffffffffffffffffffffffffffffffffffffffffffffffffffffffffffff82612db2565b612df98683612db2565b95508019841693508086168417925050509392505050565b6000819050919050565b6000612e36612e31612e2c84612131565b612e11565b612131565b9050919050565b6000819050919050565b612e5083612e1b565b612e64612e5c82612e3d565b848454612dbf565b825550505050565b600090565b612e79612e6c565b612e84818484612e47565b505050565b5b81811015612ea857612e9d600082612e71565b600181019050612e8a565b5050565b601f821115612eed57612ebe81612d8d565b612ec784612da2565b81016020851015612ed6578190505b612eea612ee285612da2565b830182612e89565b50505b505050565b600082821c905092915050565b6000612f1060001984600802612ef2565b1980831691505092915050565b6000612f298383612eff565b9150826002028217905092915050565b612f428261207f565b67ffffffffffffffff811115612f5b57612f5a61237c565b5b612f658254612696565b612f70828285612eac565b600060209050601f831160018114612fa35760008415612f91578287015190505b612f9b8582612f1d565b865550613003565b601f198416612fb186612d8d565b60005b82811015612fd957848901518255600182019150602085019450602081019050612fb4565b86831015612ff65784890151612ff2601f891682612eff565b8355505b6001600288020188555050505b505050505050565b7f5061757361626c653a206e6f7420706175736564000000000000000000000000600082015250565b600061304160148361208a565b915061304c8261300b565b602082019050919050565b6000602082019050818103600083015261307081613034565b9050919050565b7f5061757361626c653a2070617573656400000000000000000000000000000000600082015250565b60006130ad60108361208a565b91506130b882613077565b602082019050919050565b600060208201905081810360008301526130dc816130a0565b9050919050565b600081519050919050565b600082825260208201905092915050565b600061310a826130e3565b61311481856130ee565b935061312481856020860161209b565b61312d816120c5565b840191505092915050565b600060808201905061314d60008301876121c6565b61315a60208301866121c6565b61316760408301856122dc565b818103606083015261317981846130ff565b905095945050505050565b60008151905061319381611ff0565b92915050565b6000602082840312156131af576131ae611fba565b5b60006131bd84828501613184565b91505092915050565b7f4e487b7100000000000000000000000000000000000000000000000000000000600052601160045260246000fd5b600061320082612131565b915061320b83612131565b9250828203905081811115613223576132226131c6565b5b92915050565b600061323482612131565b915061323f83612131565b9250828201905080821115613257576132566131c6565b5b92915050565b7f4e487b7100000000000000000000000000000000000000000000000000000000600052601260045260246000fd5b7f4552433732313a206d696e7420746f20746865207a65726f2061646472657373600082015250565b60006132c260208361208a565b91506132cd8261328c565b602082019050919050565b600060208201905081810360008301526132f1816132b5565b9050919050565b7f4552433732313a20746f6b656e20616c7265616479206d696e74656400000000600082015250565b600061332e601c8361208a565b9150613339826132f8565b602082019050919050565b6000602082019050818103600083015261335d81613321565b905091905056fea2646970667358221220c555a3d26184c43e79faccdd2c21e5f9e7ff9608ab21c23976e909af0fa46b7c64736f6c63430008110033","linkReferences":{},"deployedLinkReferences":{}}